{
  "contracts/SubscriptionPayment.sol": {
    "SubscriptionPayment": {
      "abi": [
        {
          "inputs": [
            {
              "internalType": "uint256",
              "name": "_paymentGracePeriod",
              "type": "uint256"
            }
          ],
          "stateMutability": "nonpayable",
          "type": "constructor"
        },
        {
          "anonymous": false,
          "inputs": [
            {
              "indexed": true,
              "internalType": "address",
              "name": "providerAddress",
              "type": "address"
            },
            {
              "indexed": false,
              "internalType": "uint256",
              "name": "amount",
              "type": "uint256"
            }
          ],
          "name": "FundsWithdrawn",
          "type": "event"
        },
        {
          "anonymous": false,
          "inputs": [
            {
              "indexed": true,
              "internalType": "address",
              "name": "user",
              "type": "address"
            },
            {
              "indexed": true,
              "internalType": "address",
              "name": "providerAddress",
              "type": "address"
            },
            {
              "indexed": false,
              "internalType": "uint256",
              "name": "planId",
              "type": "uint256"
            }
          ],
          "name": "PaymentApproved",
          "type": "event"
        },
        {
          "anonymous": false,
          "inputs": [
            {
              "indexed": true,
              "internalType": "address",
              "name": "providerAddress",
              "type": "address"
            },
            {
              "indexed": false,
              "internalType": "string",
              "name": "providerName",
              "type": "string"
            }
          ],
          "name": "ServiceProviderRegistered",
          "type": "event"
        },
        {
          "anonymous": false,
          "inputs": [
            {
              "indexed": true,
              "internalType": "address",
              "name": "user",
              "type": "address"
            },
            {
              "indexed": true,
              "internalType": "address",
              "name": "providerAddress",
              "type": "address"
            },
            {
              "indexed": false,
              "internalType": "uint256",
              "name": "planId",
              "type": "uint256"
            }
          ],
          "name": "SubscriptionPaused",
          "type": "event"
        },
        {
          "anonymous": false,
          "inputs": [
            {
              "indexed": true,
              "internalType": "address",
              "name": "providerAddress",
              "type": "address"
            },
            {
              "indexed": false,
              "internalType": "uint256",
              "name": "planId",
              "type": "uint256"
            },
            {
              "indexed": false,
              "internalType": "string",
              "name": "planName",
              "type": "string"
            }
          ],
          "name": "SubscriptionPlanCreated",
          "type": "event"
        },
        {
          "inputs": [
            {
              "internalType": "address",
              "name": "",
              "type": "address"
            }
          ],
          "name": "allServiceProviders",
          "outputs": [
            {
              "internalType": "bool",
              "name": "",
              "type": "bool"
            }
          ],
          "stateMutability": "view",
          "type": "function"
        },
        {
          "inputs": [],
          "name": "contractOwner",
          "outputs": [
            {
              "internalType": "address",
              "name": "",
              "type": "address"
            }
          ],
          "stateMutability": "view",
          "type": "function"
        },
        {
          "inputs": [],
          "name": "contractPaused",
          "outputs": [
            {
              "internalType": "bool",
              "name": "",
              "type": "bool"
            }
          ],
          "stateMutability": "view",
          "type": "function"
        },
        {
          "inputs": [
            {
              "internalType": "string",
              "name": "_planName",
              "type": "string"
            },
            {
              "internalType": "uint256",
              "name": "_price",
              "type": "uint256"
            },
            {
              "internalType": "uint256",
              "name": "_paymentInterval",
              "type": "uint256"
            }
          ],
          "name": "createSubscriptionPlan",
          "outputs": [],
          "stateMutability": "nonpayable",
          "type": "function"
        },
        {
          "inputs": [],
          "name": "paymentGracePeriod",
          "outputs": [
            {
              "internalType": "uint256",
              "name": "",
              "type": "uint256"
            }
          ],
          "stateMutability": "view",
          "type": "function"
        },
        {
          "inputs": [
            {
              "internalType": "address",
              "name": "_providerAddress",
              "type": "address"
            },
            {
              "internalType": "string",
              "name": "_providerName",
              "type": "string"
            }
          ],
          "name": "registerServiceProvider",
          "outputs": [],
          "stateMutability": "nonpayable",
          "type": "function"
        },
        {
          "inputs": [
            {
              "internalType": "address",
              "name": "",
              "type": "address"
            }
          ],
          "name": "serviceProviders",
          "outputs": [
            {
              "internalType": "address",
              "name": "providerAddress",
              "type": "address"
            },
            {
              "internalType": "string",
              "name": "providerName",
              "type": "string"
            },
            {
              "internalType": "uint256",
              "name": "totalPlans",
              "type": "uint256"
            },
            {
              "internalType": "uint256",
              "name": "totalSubscribers",
              "type": "uint256"
            },
            {
              "internalType": "uint256",
              "name": "balance",
              "type": "uint256"
            }
          ],
          "stateMutability": "view",
          "type": "function"
        },
        {
          "inputs": [
            {
              "internalType": "address",
              "name": "",
              "type": "address"
            }
          ],
          "name": "userDetails",
          "outputs": [
            {
              "internalType": "address",
              "name": "userAddress",
              "type": "address"
            },
            {
              "internalType": "string",
              "name": "username",
              "type": "string"
            },
            {
              "internalType": "uint256",
              "name": "totalSubscriptions",
              "type": "uint256"
            },
            {
              "internalType": "uint256",
              "name": "activeSubscriptions",
              "type": "uint256"
            },
            {
              "internalType": "uint256",
              "name": "registrationDate",
              "type": "uint256"
            }
          ],
          "stateMutability": "view",
          "type": "function"
        },
        {
          "inputs": [
            {
              "internalType": "address",
              "name": "",
              "type": "address"
            }
          ],
          "name": "userSubscriptions",
          "outputs": [
            {
              "internalType": "uint256",
              "name": "planId",
              "type": "uint256"
            },
            {
              "internalType": "address",
              "name": "providerAddress",
              "type": "address"
            },
            {
              "internalType": "uint256",
              "name": "nextPaymentDue",
              "type": "uint256"
            },
            {
              "internalType": "bool",
              "name": "isActive",
              "type": "bool"
            },
            {
              "internalType": "uint256",
              "name": "approvalDeadline",
              "type": "uint256"
            },
            {
              "internalType": "uint256",
              "name": "gracePeriodEnds",
              "type": "uint256"
            },
            {
              "internalType": "bool",
              "name": "isPaymentApproved",
              "type": "bool"
            }
          ],
          "stateMutability": "view",
          "type": "function"
        }
      ],
      "evm": {
        "bytecode": {
          "linkReferences": {},
          "object": "60806040523480156200001157600080fd5b5060405162001710380380620017108339818101604052810190620000379190620000e1565b33600560006101000a81548173ffffffffffffffffffffffffffffffffffffffff021916908373ffffffffffffffffffffffffffffffffffffffff160217905550806004819055506000600560146101000a81548160ff0219169083151502179055505062000113565b600080fd5b6000819050919050565b620000bb81620000a6565b8114620000c757600080fd5b50565b600081519050620000db81620000b0565b92915050565b600060208284031215620000fa57620000f9620000a1565b5b60006200010a84828501620000ca565b91505092915050565b6115ed80620001236000396000f3fe608060405234801561001057600080fd5b50600436106100935760003560e01c80638e6e69d1116100665780638e6e69d11461014e57806391e794de1461016a578063ae31b3dd14610186578063ce606ee0146101a4578063cf14b9e4146101c257610093565b80633cf9e3811461009857806348dec2a7146100c85780636a0f4dd0146100fc5780638a67456a14610130575b600080fd5b6100b260048036038101906100ad9190610b0a565b6101f8565b6040516100bf9190610b52565b60405180910390f35b6100e260048036038101906100dd9190610b0a565b610218565b6040516100f3959493929190610c25565b60405180910390f35b61011660048036038101906101119190610b0a565b6102f6565b604051610127959493929190610c25565b60405180910390f35b6101386103d4565b6040516101459190610b52565b60405180910390f35b61016860048036038101906101639190610de0565b6103e7565b005b610184600480360381019061017f9190610e4f565b6106e1565b005b61018e6109f0565b60405161019b9190610eab565b60405180910390f35b6101ac6109f6565b6040516101b99190610ec6565b60405180910390f35b6101dc60048036038101906101d79190610b0a565b610a1c565b6040516101ef9796959493929190610ee1565b60405180910390f35b60036020528060005260406000206000915054906101000a900460ff1681565b60026020528060005260406000206000915090508060000160009054906101000a900473ffffffffffffffffffffffffffffffffffffffff169080600101805461026190610f7f565b80601f016020809104026020016040519081016040528092919081815260200182805461028d90610f7f565b80156102da5780601f106102af576101008083540402835291602001916102da565b820191906000526020600020905b8154815290600101906020018083116102bd57829003601f168201915b5050505050908060020154908060030154908060040154905085565b60006020528060005260406000206000915090508060000160009054906101000a900473ffffffffffffffffffffffffffffffffffffffff169080600101805461033f90610f7f565b80601f016020809104026020016040519081016040528092919081815260200182805461036b90610f7f565b80156103b85780601f1061038d576101008083540402835291602001916103b8565b820191906000526020600020905b81548152906001019060200180831161039b57829003601f168201915b5050505050908060030154908060040154908060060154905085565b600560149054906101000a900460ff1681565b600560149054906101000a900460ff1615610437576040517f08c379a000000000000000000000000000000000000000000000000000000000815260040161042e90610ffc565b60405180910390fd5b600360003373ffffffffffffffffffffffffffffffffffffffff1673ffffffffffffffffffffffffffffffffffffffff16815260200190815260200160002060009054906101000a900460ff166104c3576040517f08c379a00000000000000000000000000000000000000000000000000000000081526004016104ba90611068565b60405180910390fd5b60008211610506576040517f08c379a00000000000000000000000000000000000000000000000000000000081526004016104fd906110d4565b60405180910390fd5b60008111610549576040517f08c379a000000000000000000000000000000000000000000000000000000000815260040161054090611166565b60405180910390fd5b600060016000803373ffffffffffffffffffffffffffffffffffffffff1673ffffffffffffffffffffffffffffffffffffffff1681526020019081526020016000206003015461059991906111b5565b90506040518060800160405280828152602001858152602001848152602001838152506000803373ffffffffffffffffffffffffffffffffffffffff1673ffffffffffffffffffffffffffffffffffffffff168152602001908152602001600020600201600083815260200190815260200160002060008201518160000155602082015181600101908161062d9190611395565b506040820151816002015560608201518160030155905050806000803373ffffffffffffffffffffffffffffffffffffffff1673ffffffffffffffffffffffffffffffffffffffff168152602001908152602001600020600301819055503373ffffffffffffffffffffffffffffffffffffffff167f4e72a45132c1e28255bcea6b99a1d7b48cdd158894bcb5f0d609bfe958c134a282866040516106d3929190611467565b60405180910390a250505050565b600560009054906101000a900473ffffffffffffffffffffffffffffffffffffffff1673ffffffffffffffffffffffffffffffffffffffff163373ffffffffffffffffffffffffffffffffffffffff1614610771576040517f08c379a000000000000000000000000000000000000000000000000000000000815260040161076890611509565b60405180910390fd5b600560149054906101000a900460ff16156107c1576040517f08c379a00000000000000000000000000000000000000000000000000000000081526004016107b890610ffc565b60405180910390fd5b8173ffffffffffffffffffffffffffffffffffffffff166000808473ffffffffffffffffffffffffffffffffffffffff1673ffffffffffffffffffffffffffffffffffffffff16815260200190815260200160002060000160009054906101000a900473ffffffffffffffffffffffffffffffffffffffff1673ffffffffffffffffffffffffffffffffffffffff1603610890576040517f08c379a000000000000000000000000000000000000000000000000000000000815260040161088790611575565b60405180910390fd5b60008060008473ffffffffffffffffffffffffffffffffffffffff1673ffffffffffffffffffffffffffffffffffffffff1681526020019081526020016000209050828160000160006101000a81548173ffffffffffffffffffffffffffffffffffffffff021916908373ffffffffffffffffffffffffffffffffffffffff160217905550818160010190816109269190611395565b506000816003018190555060008160040181905550600081600601819055506001600360008573ffffffffffffffffffffffffffffffffffffffff1673ffffffffffffffffffffffffffffffffffffffff16815260200190815260200160002060006101000a81548160ff0219169083151502179055508273ffffffffffffffffffffffffffffffffffffffff167f8074bc93dd7b93b125b2ea66d821f3ad6ff7e57a296bb03be9c9ee61cb6af969836040516109e39190611595565b60405180910390a2505050565b60045481565b600560009054906101000a900473ffffffffffffffffffffffffffffffffffffffff1681565b60016020528060005260406000206000915090508060000154908060010160009054906101000a900473ffffffffffffffffffffffffffffffffffffffff16908060020154908060030160009054906101000a900460ff16908060040154908060050154908060060160009054906101000a900460ff16905087565b6000604051905090565b600080fd5b600080fd5b600073ffffffffffffffffffffffffffffffffffffffff82169050919050565b6000610ad782610aac565b9050919050565b610ae781610acc565b8114610af257600080fd5b50565b600081359050610b0481610ade565b92915050565b600060208284031215610b2057610b1f610aa2565b5b6000610b2e84828501610af5565b91505092915050565b60008115159050919050565b610b4c81610b37565b82525050565b6000602082019050610b676000830184610b43565b92915050565b610b7681610acc565b82525050565b600081519050919050565b600082825260208201905092915050565b60005b83811015610bb6578082015181840152602081019050610b9b565b60008484015250505050565b6000601f19601f8301169050919050565b6000610bde82610b7c565b610be88185610b87565b9350610bf8818560208601610b98565b610c0181610bc2565b840191505092915050565b6000819050919050565b610c1f81610c0c565b82525050565b600060a082019050610c3a6000830188610b6d565b8181036020830152610c4c8187610bd3565b9050610c5b6040830186610c16565b610c686060830185610c16565b610c756080830184610c16565b9695505050505050565b600080fd5b600080fd5b7f4e487b7100000000000000000000000000000000000000000000000000000000600052604160045260246000fd5b610cc182610bc2565b810181811067ffffffffffffffff82111715610ce057610cdf610c89565b5b80604052505050565b6000610cf3610a98565b9050610cff8282610cb8565b919050565b600067ffffffffffffffff821115610d1f57610d1e610c89565b5b610d2882610bc2565b9050602081019050919050565b82818337600083830152505050565b6000610d57610d5284610d04565b610ce9565b905082815260208101848484011115610d7357610d72610c84565b5b610d7e848285610d35565b509392505050565b600082601f830112610d9b57610d9a610c7f565b5b8135610dab848260208601610d44565b91505092915050565b610dbd81610c0c565b8114610dc857600080fd5b50565b600081359050610dda81610db4565b92915050565b600080600060608486031215610df957610df8610aa2565b5b600084013567ffffffffffffffff811115610e1757610e16610aa7565b5b610e2386828701610d86565b9350506020610e3486828701610dcb565b9250506040610e4586828701610dcb565b9150509250925092565b60008060408385031215610e6657610e65610aa2565b5b6000610e7485828601610af5565b925050602083013567ffffffffffffffff811115610e9557610e94610aa7565b5b610ea185828601610d86565b9150509250929050565b6000602082019050610ec06000830184610c16565b92915050565b6000602082019050610edb6000830184610b6d565b92915050565b600060e082019050610ef6600083018a610c16565b610f036020830189610b6d565b610f106040830188610c16565b610f1d6060830187610b43565b610f2a6080830186610c16565b610f3760a0830185610c16565b610f4460c0830184610b43565b98975050505050505050565b7f4e487b7100000000000000000000000000000000000000000000000000000000600052602260045260246000fd5b60006002820490506001821680610f9757607f821691505b602082108103610faa57610fa9610f50565b5b50919050565b7f436f6e7472616374206973207061757365640000000000000000000000000000600082015250565b6000610fe6601283610b87565b9150610ff182610fb0565b602082019050919050565b6000602082019050818103600083015261101581610fd9565b9050919050565b7f79657420746f2072656769737465720000000000000000000000000000000000600082015250565b6000611052600f83610b87565b915061105d8261101c565b602082019050919050565b6000602082019050818103600083015261108181611045565b9050919050565b7f5072696365206d7573742062652067726561746572207468616e203000000000600082015250565b60006110be601c83610b87565b91506110c982611088565b602082019050919050565b600060208201905081810360008301526110ed816110b1565b9050919050565b7f5061796d656e7420696e74657276616c206d757374206265206772656174657260008201527f207468616e203000000000000000000000000000000000000000000000000000602082015250565b6000611150602783610b87565b915061115b826110f4565b604082019050919050565b6000602082019050818103600083015261117f81611143565b9050919050565b7f4e487b7100000000000000000000000000000000000000000000000000000000600052601160045260246000fd5b60006111c082610c0c565b91506111cb83610c0c565b92508282019050808211156111e3576111e2611186565b5b92915050565b60008190508160005260206000209050919050565b60006020601f8301049050919050565b600082821b905092915050565b60006008830261124b7fffffffffffffffffffffffffffffffffffffffffffffffffffffffffffffffff8261120e565b611255868361120e565b95508019841693508086168417925050509392505050565b6000819050919050565b600061129261128d61128884610c0c565b61126d565b610c0c565b9050919050565b6000819050919050565b6112ac83611277565b6112c06112b882611299565b84845461121b565b825550505050565b600090565b6112d56112c8565b6112e08184846112a3565b505050565b5b81811015611304576112f96000826112cd565b6001810190506112e6565b5050565b601f8211156113495761131a816111e9565b611323846111fe565b81016020851015611332578190505b61134661133e856111fe565b8301826112e5565b50505b505050565b600082821c905092915050565b600061136c6000198460080261134e565b1980831691505092915050565b6000611385838361135b565b9150826002028217905092915050565b61139e82610b7c565b67ffffffffffffffff8111156113b7576113b6610c89565b5b6113c18254610f7f565b6113cc828285611308565b600060209050601f8311600181146113ff57600084156113ed578287015190505b6113f78582611379565b86555061145f565b601f19841661140d866111e9565b60005b8281101561143557848901518255600182019150602085019450602081019050611410565b86831015611452578489015161144e601f89168261135b565b8355505b6001600288020188555050505b505050505050565b600060408201905061147c6000830185610c16565b818103602083015261148e8184610bd3565b90509392505050565b7f4f6e6c792074686520636f6e7472616374206f776e65722063616e207065726660008201527f6f726d207468697320616374696f6e0000000000000000000000000000000000602082015250565b60006114f3602f83610b87565b91506114fe82611497565b604082019050919050565b60006020820190508181036000830152611522816114e6565b9050919050565b7f50726f766964657220616c726561647920726567697374657265640000000000600082015250565b600061155f601b83610b87565b915061156a82611529565b602082019050919050565b6000602082019050818103600083015261158e81611552565b9050919050565b600060208201905081810360008301526115af8184610bd3565b90509291505056fea264697066735822122044671a40c79aab8fd82cd63ef4c5b4c02a5d3cfefbe029b027a91ba0c028726d64736f6c63430008180033",
          "opcodes": "PUSH1 0x80 PUSH1 0x40 MSTORE CALLVALUE DUP1 ISZERO PUSH3 0x11 JUMPI PUSH1 0x0 DUP1 REVERT JUMPDEST POP PUSH1 0x40 MLOAD PUSH3 0x1710 CODESIZE SUB DUP1 PUSH3 0x1710 DUP4 CODECOPY DUP2 DUP2 ADD PUSH1 0x40 MSTORE DUP2 ADD SWAP1 PUSH3 0x37 SWAP2 SWAP1 PUSH3 0xE1 JUMP JUMPDEST CALLER PUSH1 0x5 PUSH1 0x0 PUSH2 0x100 EXP DUP2 SLOAD DUP2 PUSH20 0xFFFFFFFFFFFFFFFFFFFFFFFFFFFFFFFFFFFFFFFF MUL NOT AND SWAP1 DUP4 PUSH20 0xFFFFFFFFFFFFFFFFFFFFFFFFFFFFFFFFFFFFFFFF AND MUL OR SWAP1 SSTORE POP DUP1 PUSH1 0x4 DUP2 SWAP1 SSTORE POP PUSH1 0x0 PUSH1 0x5 PUSH1 0x14 PUSH2 0x100 EXP DUP2 SLOAD DUP2 PUSH1 0xFF MUL NOT AND SWAP1 DUP4 ISZERO ISZERO MUL OR SWAP1 SSTORE POP POP PUSH3 0x113 JUMP JUMPDEST PUSH1 0x0 DUP1 REVERT JUMPDEST PUSH1 0x0 DUP2 SWAP1 POP SWAP2 SWAP1 POP JUMP JUMPDEST PUSH3 0xBB DUP2 PUSH3 0xA6 JUMP JUMPDEST DUP2 EQ PUSH3 0xC7 JUMPI PUSH1 0x0 DUP1 REVERT JUMPDEST POP JUMP JUMPDEST PUSH1 0x0 DUP2 MLOAD SWAP1 POP PUSH3 0xDB DUP2 PUSH3 0xB0 JUMP JUMPDEST SWAP3 SWAP2 POP POP JUMP JUMPDEST PUSH1 0x0 PUSH1 0x20 DUP3 DUP5 SUB SLT ISZERO PUSH3 0xFA JUMPI PUSH3 0xF9 PUSH3 0xA1 JUMP JUMPDEST JUMPDEST PUSH1 0x0 PUSH3 0x10A DUP5 DUP3 DUP6 ADD PUSH3 0xCA JUMP JUMPDEST SWAP2 POP POP SWAP3 SWAP2 POP POP JUMP JUMPDEST PUSH2 0x15ED DUP1 PUSH3 0x123 PUSH1 0x0 CODECOPY PUSH1 0x0 RETURN INVALID PUSH1 0x80 PUSH1 0x40 MSTORE CALLVALUE DUP1 ISZERO PUSH2 0x10 JUMPI PUSH1 0x0 DUP1 REVERT JUMPDEST POP PUSH1 0x4 CALLDATASIZE LT PUSH2 0x93 JUMPI PUSH1 0x0 CALLDATALOAD PUSH1 0xE0 SHR DUP1 PUSH4 0x8E6E69D1 GT PUSH2 0x66 JUMPI DUP1 PUSH4 0x8E6E69D1 EQ PUSH2 0x14E JUMPI DUP1 PUSH4 0x91E794DE EQ PUSH2 0x16A JUMPI DUP1 PUSH4 0xAE31B3DD EQ PUSH2 0x186 JUMPI DUP1 PUSH4 0xCE606EE0 EQ PUSH2 0x1A4 JUMPI DUP1 PUSH4 0xCF14B9E4 EQ PUSH2 0x1C2 JUMPI PUSH2 0x93 JUMP JUMPDEST DUP1 PUSH4 0x3CF9E381 EQ PUSH2 0x98 JUMPI DUP1 PUSH4 0x48DEC2A7 EQ PUSH2 0xC8 JUMPI DUP1 PUSH4 0x6A0F4DD0 EQ PUSH2 0xFC JUMPI DUP1 PUSH4 0x8A67456A EQ PUSH2 0x130 JUMPI JUMPDEST PUSH1 0x0 DUP1 REVERT JUMPDEST PUSH2 0xB2 PUSH1 0x4 DUP1 CALLDATASIZE SUB DUP2 ADD SWAP1 PUSH2 0xAD SWAP2 SWAP1 PUSH2 0xB0A JUMP JUMPDEST PUSH2 0x1F8 JUMP JUMPDEST PUSH1 0x40 MLOAD PUSH2 0xBF SWAP2 SWAP1 PUSH2 0xB52 JUMP JUMPDEST PUSH1 0x40 MLOAD DUP1 SWAP2 SUB SWAP1 RETURN JUMPDEST PUSH2 0xE2 PUSH1 0x4 DUP1 CALLDATASIZE SUB DUP2 ADD SWAP1 PUSH2 0xDD SWAP2 SWAP1 PUSH2 0xB0A JUMP JUMPDEST PUSH2 0x218 JUMP JUMPDEST PUSH1 0x40 MLOAD PUSH2 0xF3 SWAP6 SWAP5 SWAP4 SWAP3 SWAP2 SWAP1 PUSH2 0xC25 JUMP JUMPDEST PUSH1 0x40 MLOAD DUP1 SWAP2 SUB SWAP1 RETURN JUMPDEST PUSH2 0x116 PUSH1 0x4 DUP1 CALLDATASIZE SUB DUP2 ADD SWAP1 PUSH2 0x111 SWAP2 SWAP1 PUSH2 0xB0A JUMP JUMPDEST PUSH2 0x2F6 JUMP JUMPDEST PUSH1 0x40 MLOAD PUSH2 0x127 SWAP6 SWAP5 SWAP4 SWAP3 SWAP2 SWAP1 PUSH2 0xC25 JUMP JUMPDEST PUSH1 0x40 MLOAD DUP1 SWAP2 SUB SWAP1 RETURN JUMPDEST PUSH2 0x138 PUSH2 0x3D4 JUMP JUMPDEST PUSH1 0x40 MLOAD PUSH2 0x145 SWAP2 SWAP1 PUSH2 0xB52 JUMP JUMPDEST PUSH1 0x40 MLOAD DUP1 SWAP2 SUB SWAP1 RETURN JUMPDEST PUSH2 0x168 PUSH1 0x4 DUP1 CALLDATASIZE SUB DUP2 ADD SWAP1 PUSH2 0x163 SWAP2 SWAP1 PUSH2 0xDE0 JUMP JUMPDEST PUSH2 0x3E7 JUMP JUMPDEST STOP JUMPDEST PUSH2 0x184 PUSH1 0x4 DUP1 CALLDATASIZE SUB DUP2 ADD SWAP1 PUSH2 0x17F SWAP2 SWAP1 PUSH2 0xE4F JUMP JUMPDEST PUSH2 0x6E1 JUMP JUMPDEST STOP JUMPDEST PUSH2 0x18E PUSH2 0x9F0 JUMP JUMPDEST PUSH1 0x40 MLOAD PUSH2 0x19B SWAP2 SWAP1 PUSH2 0xEAB JUMP JUMPDEST PUSH1 0x40 MLOAD DUP1 SWAP2 SUB SWAP1 RETURN JUMPDEST PUSH2 0x1AC PUSH2 0x9F6 JUMP JUMPDEST PUSH1 0x40 MLOAD PUSH2 0x1B9 SWAP2 SWAP1 PUSH2 0xEC6 JUMP JUMPDEST PUSH1 0x40 MLOAD DUP1 SWAP2 SUB SWAP1 RETURN JUMPDEST PUSH2 0x1DC PUSH1 0x4 DUP1 CALLDATASIZE SUB DUP2 ADD SWAP1 PUSH2 0x1D7 SWAP2 SWAP1 PUSH2 0xB0A JUMP JUMPDEST PUSH2 0xA1C JUMP JUMPDEST PUSH1 0x40 MLOAD PUSH2 0x1EF SWAP8 SWAP7 SWAP6 SWAP5 SWAP4 SWAP3 SWAP2 SWAP1 PUSH2 0xEE1 JUMP JUMPDEST PUSH1 0x40 MLOAD DUP1 SWAP2 SUB SWAP1 RETURN JUMPDEST PUSH1 0x3 PUSH1 0x20 MSTORE DUP1 PUSH1 0x0 MSTORE PUSH1 0x40 PUSH1 0x0 KECCAK256 PUSH1 0x0 SWAP2 POP SLOAD SWAP1 PUSH2 0x100 EXP SWAP1 DIV PUSH1 0xFF AND DUP2 JUMP JUMPDEST PUSH1 0x2 PUSH1 0x20 MSTORE DUP1 PUSH1 0x0 MSTORE PUSH1 0x40 PUSH1 0x0 KECCAK256 PUSH1 0x0 SWAP2 POP SWAP1 POP DUP1 PUSH1 0x0 ADD PUSH1 0x0 SWAP1 SLOAD SWAP1 PUSH2 0x100 EXP SWAP1 DIV PUSH20 0xFFFFFFFFFFFFFFFFFFFFFFFFFFFFFFFFFFFFFFFF AND SWAP1 DUP1 PUSH1 0x1 ADD DUP1 SLOAD PUSH2 0x261 SWAP1 PUSH2 0xF7F JUMP JUMPDEST DUP1 PUSH1 0x1F ADD PUSH1 0x20 DUP1 SWAP2 DIV MUL PUSH1 0x20 ADD PUSH1 0x40 MLOAD SWAP1 DUP2 ADD PUSH1 0x40 MSTORE DUP1 SWAP3 SWAP2 SWAP1 DUP2 DUP2 MSTORE PUSH1 0x20 ADD DUP3 DUP1 SLOAD PUSH2 0x28D SWAP1 PUSH2 0xF7F JUMP JUMPDEST DUP1 ISZERO PUSH2 0x2DA JUMPI DUP1 PUSH1 0x1F LT PUSH2 0x2AF JUMPI PUSH2 0x100 DUP1 DUP4 SLOAD DIV MUL DUP4 MSTORE SWAP2 PUSH1 0x20 ADD SWAP2 PUSH2 0x2DA JUMP JUMPDEST DUP3 ADD SWAP2 SWAP1 PUSH1 0x0 MSTORE PUSH1 0x20 PUSH1 0x0 KECCAK256 SWAP1 JUMPDEST DUP2 SLOAD DUP2 MSTORE SWAP1 PUSH1 0x1 ADD SWAP1 PUSH1 0x20 ADD DUP1 DUP4 GT PUSH2 0x2BD JUMPI DUP3 SWAP1 SUB PUSH1 0x1F AND DUP3 ADD SWAP2 JUMPDEST POP POP POP POP POP SWAP1 DUP1 PUSH1 0x2 ADD SLOAD SWAP1 DUP1 PUSH1 0x3 ADD SLOAD SWAP1 DUP1 PUSH1 0x4 ADD SLOAD SWAP1 POP DUP6 JUMP JUMPDEST PUSH1 0x0 PUSH1 0x20 MSTORE DUP1 PUSH1 0x0 MSTORE PUSH1 0x40 PUSH1 0x0 KECCAK256 PUSH1 0x0 SWAP2 POP SWAP1 POP DUP1 PUSH1 0x0 ADD PUSH1 0x0 SWAP1 SLOAD SWAP1 PUSH2 0x100 EXP SWAP1 DIV PUSH20 0xFFFFFFFFFFFFFFFFFFFFFFFFFFFFFFFFFFFFFFFF AND SWAP1 DUP1 PUSH1 0x1 ADD DUP1 SLOAD PUSH2 0x33F SWAP1 PUSH2 0xF7F JUMP JUMPDEST DUP1 PUSH1 0x1F ADD PUSH1 0x20 DUP1 SWAP2 DIV MUL PUSH1 0x20 ADD PUSH1 0x40 MLOAD SWAP1 DUP2 ADD PUSH1 0x40 MSTORE DUP1 SWAP3 SWAP2 SWAP1 DUP2 DUP2 MSTORE PUSH1 0x20 ADD DUP3 DUP1 SLOAD PUSH2 0x36B SWAP1 PUSH2 0xF7F JUMP JUMPDEST DUP1 ISZERO PUSH2 0x3B8 JUMPI DUP1 PUSH1 0x1F LT PUSH2 0x38D JUMPI PUSH2 0x100 DUP1 DUP4 SLOAD DIV MUL DUP4 MSTORE SWAP2 PUSH1 0x20 ADD SWAP2 PUSH2 0x3B8 JUMP JUMPDEST DUP3 ADD SWAP2 SWAP1 PUSH1 0x0 MSTORE PUSH1 0x20 PUSH1 0x0 KECCAK256 SWAP1 JUMPDEST DUP2 SLOAD DUP2 MSTORE SWAP1 PUSH1 0x1 ADD SWAP1 PUSH1 0x20 ADD DUP1 DUP4 GT PUSH2 0x39B JUMPI DUP3 SWAP1 SUB PUSH1 0x1F AND DUP3 ADD SWAP2 JUMPDEST POP POP POP POP POP SWAP1 DUP1 PUSH1 0x3 ADD SLOAD SWAP1 DUP1 PUSH1 0x4 ADD SLOAD SWAP1 DUP1 PUSH1 0x6 ADD SLOAD SWAP1 POP DUP6 JUMP JUMPDEST PUSH1 0x5 PUSH1 0x14 SWAP1 SLOAD SWAP1 PUSH2 0x100 EXP SWAP1 DIV PUSH1 0xFF AND DUP2 JUMP JUMPDEST PUSH1 0x5 PUSH1 0x14 SWAP1 SLOAD SWAP1 PUSH2 0x100 EXP SWAP1 DIV PUSH1 0xFF AND ISZERO PUSH2 0x437 JUMPI PUSH1 0x40 MLOAD PUSH32 0x8C379A000000000000000000000000000000000000000000000000000000000 DUP2 MSTORE PUSH1 0x4 ADD PUSH2 0x42E SWAP1 PUSH2 0xFFC JUMP JUMPDEST PUSH1 0x40 MLOAD DUP1 SWAP2 SUB SWAP1 REVERT JUMPDEST PUSH1 0x3 PUSH1 0x0 CALLER PUSH20 0xFFFFFFFFFFFFFFFFFFFFFFFFFFFFFFFFFFFFFFFF AND PUSH20 0xFFFFFFFFFFFFFFFFFFFFFFFFFFFFFFFFFFFFFFFF AND DUP2 MSTORE PUSH1 0x20 ADD SWAP1 DUP2 MSTORE PUSH1 0x20 ADD PUSH1 0x0 KECCAK256 PUSH1 0x0 SWAP1 SLOAD SWAP1 PUSH2 0x100 EXP SWAP1 DIV PUSH1 0xFF AND PUSH2 0x4C3 JUMPI PUSH1 0x40 MLOAD PUSH32 0x8C379A000000000000000000000000000000000000000000000000000000000 DUP2 MSTORE PUSH1 0x4 ADD PUSH2 0x4BA SWAP1 PUSH2 0x1068 JUMP JUMPDEST PUSH1 0x40 MLOAD DUP1 SWAP2 SUB SWAP1 REVERT JUMPDEST PUSH1 0x0 DUP3 GT PUSH2 0x506 JUMPI PUSH1 0x40 MLOAD PUSH32 0x8C379A000000000000000000000000000000000000000000000000000000000 DUP2 MSTORE PUSH1 0x4 ADD PUSH2 0x4FD SWAP1 PUSH2 0x10D4 JUMP JUMPDEST PUSH1 0x40 MLOAD DUP1 SWAP2 SUB SWAP1 REVERT JUMPDEST PUSH1 0x0 DUP2 GT PUSH2 0x549 JUMPI PUSH1 0x40 MLOAD PUSH32 0x8C379A000000000000000000000000000000000000000000000000000000000 DUP2 MSTORE PUSH1 0x4 ADD PUSH2 0x540 SWAP1 PUSH2 0x1166 JUMP JUMPDEST PUSH1 0x40 MLOAD DUP1 SWAP2 SUB SWAP1 REVERT JUMPDEST PUSH1 0x0 PUSH1 0x1 PUSH1 0x0 DUP1 CALLER PUSH20 0xFFFFFFFFFFFFFFFFFFFFFFFFFFFFFFFFFFFFFFFF AND PUSH20 0xFFFFFFFFFFFFFFFFFFFFFFFFFFFFFFFFFFFFFFFF AND DUP2 MSTORE PUSH1 0x20 ADD SWAP1 DUP2 MSTORE PUSH1 0x20 ADD PUSH1 0x0 KECCAK256 PUSH1 0x3 ADD SLOAD PUSH2 0x599 SWAP2 SWAP1 PUSH2 0x11B5 JUMP JUMPDEST SWAP1 POP PUSH1 0x40 MLOAD DUP1 PUSH1 0x80 ADD PUSH1 0x40 MSTORE DUP1 DUP3 DUP2 MSTORE PUSH1 0x20 ADD DUP6 DUP2 MSTORE PUSH1 0x20 ADD DUP5 DUP2 MSTORE PUSH1 0x20 ADD DUP4 DUP2 MSTORE POP PUSH1 0x0 DUP1 CALLER PUSH20 0xFFFFFFFFFFFFFFFFFFFFFFFFFFFFFFFFFFFFFFFF AND PUSH20 0xFFFFFFFFFFFFFFFFFFFFFFFFFFFFFFFFFFFFFFFF AND DUP2 MSTORE PUSH1 0x20 ADD SWAP1 DUP2 MSTORE PUSH1 0x20 ADD PUSH1 0x0 KECCAK256 PUSH1 0x2 ADD PUSH1 0x0 DUP4 DUP2 MSTORE PUSH1 0x20 ADD SWAP1 DUP2 MSTORE PUSH1 0x20 ADD PUSH1 0x0 KECCAK256 PUSH1 0x0 DUP3 ADD MLOAD DUP2 PUSH1 0x0 ADD SSTORE PUSH1 0x20 DUP3 ADD MLOAD DUP2 PUSH1 0x1 ADD SWAP1 DUP2 PUSH2 0x62D SWAP2 SWAP1 PUSH2 0x1395 JUMP JUMPDEST POP PUSH1 0x40 DUP3 ADD MLOAD DUP2 PUSH1 0x2 ADD SSTORE PUSH1 0x60 DUP3 ADD MLOAD DUP2 PUSH1 0x3 ADD SSTORE SWAP1 POP POP DUP1 PUSH1 0x0 DUP1 CALLER PUSH20 0xFFFFFFFFFFFFFFFFFFFFFFFFFFFFFFFFFFFFFFFF AND PUSH20 0xFFFFFFFFFFFFFFFFFFFFFFFFFFFFFFFFFFFFFFFF AND DUP2 MSTORE PUSH1 0x20 ADD SWAP1 DUP2 MSTORE PUSH1 0x20 ADD PUSH1 0x0 KECCAK256 PUSH1 0x3 ADD DUP2 SWAP1 SSTORE POP CALLER PUSH20 0xFFFFFFFFFFFFFFFFFFFFFFFFFFFFFFFFFFFFFFFF AND PUSH32 0x4E72A45132C1E28255BCEA6B99A1D7B48CDD158894BCB5F0D609BFE958C134A2 DUP3 DUP7 PUSH1 0x40 MLOAD PUSH2 0x6D3 SWAP3 SWAP2 SWAP1 PUSH2 0x1467 JUMP JUMPDEST PUSH1 0x40 MLOAD DUP1 SWAP2 SUB SWAP1 LOG2 POP POP POP POP JUMP JUMPDEST PUSH1 0x5 PUSH1 0x0 SWAP1 SLOAD SWAP1 PUSH2 0x100 EXP SWAP1 DIV PUSH20 0xFFFFFFFFFFFFFFFFFFFFFFFFFFFFFFFFFFFFFFFF AND PUSH20 0xFFFFFFFFFFFFFFFFFFFFFFFFFFFFFFFFFFFFFFFF AND CALLER PUSH20 0xFFFFFFFFFFFFFFFFFFFFFFFFFFFFFFFFFFFFFFFF AND EQ PUSH2 0x771 JUMPI PUSH1 0x40 MLOAD PUSH32 0x8C379A000000000000000000000000000000000000000000000000000000000 DUP2 MSTORE PUSH1 0x4 ADD PUSH2 0x768 SWAP1 PUSH2 0x1509 JUMP JUMPDEST PUSH1 0x40 MLOAD DUP1 SWAP2 SUB SWAP1 REVERT JUMPDEST PUSH1 0x5 PUSH1 0x14 SWAP1 SLOAD SWAP1 PUSH2 0x100 EXP SWAP1 DIV PUSH1 0xFF AND ISZERO PUSH2 0x7C1 JUMPI PUSH1 0x40 MLOAD PUSH32 0x8C379A000000000000000000000000000000000000000000000000000000000 DUP2 MSTORE PUSH1 0x4 ADD PUSH2 0x7B8 SWAP1 PUSH2 0xFFC JUMP JUMPDEST PUSH1 0x40 MLOAD DUP1 SWAP2 SUB SWAP1 REVERT JUMPDEST DUP2 PUSH20 0xFFFFFFFFFFFFFFFFFFFFFFFFFFFFFFFFFFFFFFFF AND PUSH1 0x0 DUP1 DUP5 PUSH20 0xFFFFFFFFFFFFFFFFFFFFFFFFFFFFFFFFFFFFFFFF AND PUSH20 0xFFFFFFFFFFFFFFFFFFFFFFFFFFFFFFFFFFFFFFFF AND DUP2 MSTORE PUSH1 0x20 ADD SWAP1 DUP2 MSTORE PUSH1 0x20 ADD PUSH1 0x0 KECCAK256 PUSH1 0x0 ADD PUSH1 0x0 SWAP1 SLOAD SWAP1 PUSH2 0x100 EXP SWAP1 DIV PUSH20 0xFFFFFFFFFFFFFFFFFFFFFFFFFFFFFFFFFFFFFFFF AND PUSH20 0xFFFFFFFFFFFFFFFFFFFFFFFFFFFFFFFFFFFFFFFF AND SUB PUSH2 0x890 JUMPI PUSH1 0x40 MLOAD PUSH32 0x8C379A000000000000000000000000000000000000000000000000000000000 DUP2 MSTORE PUSH1 0x4 ADD PUSH2 0x887 SWAP1 PUSH2 0x1575 JUMP JUMPDEST PUSH1 0x40 MLOAD DUP1 SWAP2 SUB SWAP1 REVERT JUMPDEST PUSH1 0x0 DUP1 PUSH1 0x0 DUP5 PUSH20 0xFFFFFFFFFFFFFFFFFFFFFFFFFFFFFFFFFFFFFFFF AND PUSH20 0xFFFFFFFFFFFFFFFFFFFFFFFFFFFFFFFFFFFFFFFF AND DUP2 MSTORE PUSH1 0x20 ADD SWAP1 DUP2 MSTORE PUSH1 0x20 ADD PUSH1 0x0 KECCAK256 SWAP1 POP DUP3 DUP2 PUSH1 0x0 ADD PUSH1 0x0 PUSH2 0x100 EXP DUP2 SLOAD DUP2 PUSH20 0xFFFFFFFFFFFFFFFFFFFFFFFFFFFFFFFFFFFFFFFF MUL NOT AND SWAP1 DUP4 PUSH20 0xFFFFFFFFFFFFFFFFFFFFFFFFFFFFFFFFFFFFFFFF AND MUL OR SWAP1 SSTORE POP DUP2 DUP2 PUSH1 0x1 ADD SWAP1 DUP2 PUSH2 0x926 SWAP2 SWAP1 PUSH2 0x1395 JUMP JUMPDEST POP PUSH1 0x0 DUP2 PUSH1 0x3 ADD DUP2 SWAP1 SSTORE POP PUSH1 0x0 DUP2 PUSH1 0x4 ADD DUP2 SWAP1 SSTORE POP PUSH1 0x0 DUP2 PUSH1 0x6 ADD DUP2 SWAP1 SSTORE POP PUSH1 0x1 PUSH1 0x3 PUSH1 0x0 DUP6 PUSH20 0xFFFFFFFFFFFFFFFFFFFFFFFFFFFFFFFFFFFFFFFF AND PUSH20 0xFFFFFFFFFFFFFFFFFFFFFFFFFFFFFFFFFFFFFFFF AND DUP2 MSTORE PUSH1 0x20 ADD SWAP1 DUP2 MSTORE PUSH1 0x20 ADD PUSH1 0x0 KECCAK256 PUSH1 0x0 PUSH2 0x100 EXP DUP2 SLOAD DUP2 PUSH1 0xFF MUL NOT AND SWAP1 DUP4 ISZERO ISZERO MUL OR SWAP1 SSTORE POP DUP3 PUSH20 0xFFFFFFFFFFFFFFFFFFFFFFFFFFFFFFFFFFFFFFFF AND PUSH32 0x8074BC93DD7B93B125B2EA66D821F3AD6FF7E57A296BB03BE9C9EE61CB6AF969 DUP4 PUSH1 0x40 MLOAD PUSH2 0x9E3 SWAP2 SWAP1 PUSH2 0x1595 JUMP JUMPDEST PUSH1 0x40 MLOAD DUP1 SWAP2 SUB SWAP1 LOG2 POP POP POP JUMP JUMPDEST PUSH1 0x4 SLOAD DUP2 JUMP JUMPDEST PUSH1 0x5 PUSH1 0x0 SWAP1 SLOAD SWAP1 PUSH2 0x100 EXP SWAP1 DIV PUSH20 0xFFFFFFFFFFFFFFFFFFFFFFFFFFFFFFFFFFFFFFFF AND DUP2 JUMP JUMPDEST PUSH1 0x1 PUSH1 0x20 MSTORE DUP1 PUSH1 0x0 MSTORE PUSH1 0x40 PUSH1 0x0 KECCAK256 PUSH1 0x0 SWAP2 POP SWAP1 POP DUP1 PUSH1 0x0 ADD SLOAD SWAP1 DUP1 PUSH1 0x1 ADD PUSH1 0x0 SWAP1 SLOAD SWAP1 PUSH2 0x100 EXP SWAP1 DIV PUSH20 0xFFFFFFFFFFFFFFFFFFFFFFFFFFFFFFFFFFFFFFFF AND SWAP1 DUP1 PUSH1 0x2 ADD SLOAD SWAP1 DUP1 PUSH1 0x3 ADD PUSH1 0x0 SWAP1 SLOAD SWAP1 PUSH2 0x100 EXP SWAP1 DIV PUSH1 0xFF AND SWAP1 DUP1 PUSH1 0x4 ADD SLOAD SWAP1 DUP1 PUSH1 0x5 ADD SLOAD SWAP1 DUP1 PUSH1 0x6 ADD PUSH1 0x0 SWAP1 SLOAD SWAP1 PUSH2 0x100 EXP SWAP1 DIV PUSH1 0xFF AND SWAP1 POP DUP8 JUMP JUMPDEST PUSH1 0x0 PUSH1 0x40 MLOAD SWAP1 POP SWAP1 JUMP JUMPDEST PUSH1 0x0 DUP1 REVERT JUMPDEST PUSH1 0x0 DUP1 REVERT JUMPDEST PUSH1 0x0 PUSH20 0xFFFFFFFFFFFFFFFFFFFFFFFFFFFFFFFFFFFFFFFF DUP3 AND SWAP1 POP SWAP2 SWAP1 POP JUMP JUMPDEST PUSH1 0x0 PUSH2 0xAD7 DUP3 PUSH2 0xAAC JUMP JUMPDEST SWAP1 POP SWAP2 SWAP1 POP JUMP JUMPDEST PUSH2 0xAE7 DUP2 PUSH2 0xACC JUMP JUMPDEST DUP2 EQ PUSH2 0xAF2 JUMPI PUSH1 0x0 DUP1 REVERT JUMPDEST POP JUMP JUMPDEST PUSH1 0x0 DUP2 CALLDATALOAD SWAP1 POP PUSH2 0xB04 DUP2 PUSH2 0xADE JUMP JUMPDEST SWAP3 SWAP2 POP POP JUMP JUMPDEST PUSH1 0x0 PUSH1 0x20 DUP3 DUP5 SUB SLT ISZERO PUSH2 0xB20 JUMPI PUSH2 0xB1F PUSH2 0xAA2 JUMP JUMPDEST JUMPDEST PUSH1 0x0 PUSH2 0xB2E DUP5 DUP3 DUP6 ADD PUSH2 0xAF5 JUMP JUMPDEST SWAP2 POP POP SWAP3 SWAP2 POP POP JUMP JUMPDEST PUSH1 0x0 DUP2 ISZERO ISZERO SWAP1 POP SWAP2 SWAP1 POP JUMP JUMPDEST PUSH2 0xB4C DUP2 PUSH2 0xB37 JUMP JUMPDEST DUP3 MSTORE POP POP JUMP JUMPDEST PUSH1 0x0 PUSH1 0x20 DUP3 ADD SWAP1 POP PUSH2 0xB67 PUSH1 0x0 DUP4 ADD DUP5 PUSH2 0xB43 JUMP JUMPDEST SWAP3 SWAP2 POP POP JUMP JUMPDEST PUSH2 0xB76 DUP2 PUSH2 0xACC JUMP JUMPDEST DUP3 MSTORE POP POP JUMP JUMPDEST PUSH1 0x0 DUP2 MLOAD SWAP1 POP SWAP2 SWAP1 POP JUMP JUMPDEST PUSH1 0x0 DUP3 DUP3 MSTORE PUSH1 0x20 DUP3 ADD SWAP1 POP SWAP3 SWAP2 POP POP JUMP JUMPDEST PUSH1 0x0 JUMPDEST DUP4 DUP2 LT ISZERO PUSH2 0xBB6 JUMPI DUP1 DUP3 ADD MLOAD DUP2 DUP5 ADD MSTORE PUSH1 0x20 DUP2 ADD SWAP1 POP PUSH2 0xB9B JUMP JUMPDEST PUSH1 0x0 DUP5 DUP5 ADD MSTORE POP POP POP POP JUMP JUMPDEST PUSH1 0x0 PUSH1 0x1F NOT PUSH1 0x1F DUP4 ADD AND SWAP1 POP SWAP2 SWAP1 POP JUMP JUMPDEST PUSH1 0x0 PUSH2 0xBDE DUP3 PUSH2 0xB7C JUMP JUMPDEST PUSH2 0xBE8 DUP2 DUP6 PUSH2 0xB87 JUMP JUMPDEST SWAP4 POP PUSH2 0xBF8 DUP2 DUP6 PUSH1 0x20 DUP7 ADD PUSH2 0xB98 JUMP JUMPDEST PUSH2 0xC01 DUP2 PUSH2 0xBC2 JUMP JUMPDEST DUP5 ADD SWAP2 POP POP SWAP3 SWAP2 POP POP JUMP JUMPDEST PUSH1 0x0 DUP2 SWAP1 POP SWAP2 SWAP1 POP JUMP JUMPDEST PUSH2 0xC1F DUP2 PUSH2 0xC0C JUMP JUMPDEST DUP3 MSTORE POP POP JUMP JUMPDEST PUSH1 0x0 PUSH1 0xA0 DUP3 ADD SWAP1 POP PUSH2 0xC3A PUSH1 0x0 DUP4 ADD DUP9 PUSH2 0xB6D JUMP JUMPDEST DUP2 DUP2 SUB PUSH1 0x20 DUP4 ADD MSTORE PUSH2 0xC4C DUP2 DUP8 PUSH2 0xBD3 JUMP JUMPDEST SWAP1 POP PUSH2 0xC5B PUSH1 0x40 DUP4 ADD DUP7 PUSH2 0xC16 JUMP JUMPDEST PUSH2 0xC68 PUSH1 0x60 DUP4 ADD DUP6 PUSH2 0xC16 JUMP JUMPDEST PUSH2 0xC75 PUSH1 0x80 DUP4 ADD DUP5 PUSH2 0xC16 JUMP JUMPDEST SWAP7 SWAP6 POP POP POP POP POP POP JUMP JUMPDEST PUSH1 0x0 DUP1 REVERT JUMPDEST PUSH1 0x0 DUP1 REVERT JUMPDEST PUSH32 0x4E487B7100000000000000000000000000000000000000000000000000000000 PUSH1 0x0 MSTORE PUSH1 0x41 PUSH1 0x4 MSTORE PUSH1 0x24 PUSH1 0x0 REVERT JUMPDEST PUSH2 0xCC1 DUP3 PUSH2 0xBC2 JUMP JUMPDEST DUP2 ADD DUP2 DUP2 LT PUSH8 0xFFFFFFFFFFFFFFFF DUP3 GT OR ISZERO PUSH2 0xCE0 JUMPI PUSH2 0xCDF PUSH2 0xC89 JUMP JUMPDEST JUMPDEST DUP1 PUSH1 0x40 MSTORE POP POP POP JUMP JUMPDEST PUSH1 0x0 PUSH2 0xCF3 PUSH2 0xA98 JUMP JUMPDEST SWAP1 POP PUSH2 0xCFF DUP3 DUP3 PUSH2 0xCB8 JUMP JUMPDEST SWAP2 SWAP1 POP JUMP JUMPDEST PUSH1 0x0 PUSH8 0xFFFFFFFFFFFFFFFF DUP3 GT ISZERO PUSH2 0xD1F JUMPI PUSH2 0xD1E PUSH2 0xC89 JUMP JUMPDEST JUMPDEST PUSH2 0xD28 DUP3 PUSH2 0xBC2 JUMP JUMPDEST SWAP1 POP PUSH1 0x20 DUP2 ADD SWAP1 POP SWAP2 SWAP1 POP JUMP JUMPDEST DUP3 DUP2 DUP4 CALLDATACOPY PUSH1 0x0 DUP4 DUP4 ADD MSTORE POP POP POP JUMP JUMPDEST PUSH1 0x0 PUSH2 0xD57 PUSH2 0xD52 DUP5 PUSH2 0xD04 JUMP JUMPDEST PUSH2 0xCE9 JUMP JUMPDEST SWAP1 POP DUP3 DUP2 MSTORE PUSH1 0x20 DUP2 ADD DUP5 DUP5 DUP5 ADD GT ISZERO PUSH2 0xD73 JUMPI PUSH2 0xD72 PUSH2 0xC84 JUMP JUMPDEST JUMPDEST PUSH2 0xD7E DUP5 DUP3 DUP6 PUSH2 0xD35 JUMP JUMPDEST POP SWAP4 SWAP3 POP POP POP JUMP JUMPDEST PUSH1 0x0 DUP3 PUSH1 0x1F DUP4 ADD SLT PUSH2 0xD9B JUMPI PUSH2 0xD9A PUSH2 0xC7F JUMP JUMPDEST JUMPDEST DUP2 CALLDATALOAD PUSH2 0xDAB DUP5 DUP3 PUSH1 0x20 DUP7 ADD PUSH2 0xD44 JUMP JUMPDEST SWAP2 POP POP SWAP3 SWAP2 POP POP JUMP JUMPDEST PUSH2 0xDBD DUP2 PUSH2 0xC0C JUMP JUMPDEST DUP2 EQ PUSH2 0xDC8 JUMPI PUSH1 0x0 DUP1 REVERT JUMPDEST POP JUMP JUMPDEST PUSH1 0x0 DUP2 CALLDATALOAD SWAP1 POP PUSH2 0xDDA DUP2 PUSH2 0xDB4 JUMP JUMPDEST SWAP3 SWAP2 POP POP JUMP JUMPDEST PUSH1 0x0 DUP1 PUSH1 0x0 PUSH1 0x60 DUP5 DUP7 SUB SLT ISZERO PUSH2 0xDF9 JUMPI PUSH2 0xDF8 PUSH2 0xAA2 JUMP JUMPDEST JUMPDEST PUSH1 0x0 DUP5 ADD CALLDATALOAD PUSH8 0xFFFFFFFFFFFFFFFF DUP2 GT ISZERO PUSH2 0xE17 JUMPI PUSH2 0xE16 PUSH2 0xAA7 JUMP JUMPDEST JUMPDEST PUSH2 0xE23 DUP7 DUP3 DUP8 ADD PUSH2 0xD86 JUMP JUMPDEST SWAP4 POP POP PUSH1 0x20 PUSH2 0xE34 DUP7 DUP3 DUP8 ADD PUSH2 0xDCB JUMP JUMPDEST SWAP3 POP POP PUSH1 0x40 PUSH2 0xE45 DUP7 DUP3 DUP8 ADD PUSH2 0xDCB JUMP JUMPDEST SWAP2 POP POP SWAP3 POP SWAP3 POP SWAP3 JUMP JUMPDEST PUSH1 0x0 DUP1 PUSH1 0x40 DUP4 DUP6 SUB SLT ISZERO PUSH2 0xE66 JUMPI PUSH2 0xE65 PUSH2 0xAA2 JUMP JUMPDEST JUMPDEST PUSH1 0x0 PUSH2 0xE74 DUP6 DUP3 DUP7 ADD PUSH2 0xAF5 JUMP JUMPDEST SWAP3 POP POP PUSH1 0x20 DUP4 ADD CALLDATALOAD PUSH8 0xFFFFFFFFFFFFFFFF DUP2 GT ISZERO PUSH2 0xE95 JUMPI PUSH2 0xE94 PUSH2 0xAA7 JUMP JUMPDEST JUMPDEST PUSH2 0xEA1 DUP6 DUP3 DUP7 ADD PUSH2 0xD86 JUMP JUMPDEST SWAP2 POP POP SWAP3 POP SWAP3 SWAP1 POP JUMP JUMPDEST PUSH1 0x0 PUSH1 0x20 DUP3 ADD SWAP1 POP PUSH2 0xEC0 PUSH1 0x0 DUP4 ADD DUP5 PUSH2 0xC16 JUMP JUMPDEST SWAP3 SWAP2 POP POP JUMP JUMPDEST PUSH1 0x0 PUSH1 0x20 DUP3 ADD SWAP1 POP PUSH2 0xEDB PUSH1 0x0 DUP4 ADD DUP5 PUSH2 0xB6D JUMP JUMPDEST SWAP3 SWAP2 POP POP JUMP JUMPDEST PUSH1 0x0 PUSH1 0xE0 DUP3 ADD SWAP1 POP PUSH2 0xEF6 PUSH1 0x0 DUP4 ADD DUP11 PUSH2 0xC16 JUMP JUMPDEST PUSH2 0xF03 PUSH1 0x20 DUP4 ADD DUP10 PUSH2 0xB6D JUMP JUMPDEST PUSH2 0xF10 PUSH1 0x40 DUP4 ADD DUP9 PUSH2 0xC16 JUMP JUMPDEST PUSH2 0xF1D PUSH1 0x60 DUP4 ADD DUP8 PUSH2 0xB43 JUMP JUMPDEST PUSH2 0xF2A PUSH1 0x80 DUP4 ADD DUP7 PUSH2 0xC16 JUMP JUMPDEST PUSH2 0xF37 PUSH1 0xA0 DUP4 ADD DUP6 PUSH2 0xC16 JUMP JUMPDEST PUSH2 0xF44 PUSH1 0xC0 DUP4 ADD DUP5 PUSH2 0xB43 JUMP JUMPDEST SWAP9 SWAP8 POP POP POP POP POP POP POP POP JUMP JUMPDEST PUSH32 0x4E487B7100000000000000000000000000000000000000000000000000000000 PUSH1 0x0 MSTORE PUSH1 0x22 PUSH1 0x4 MSTORE PUSH1 0x24 PUSH1 0x0 REVERT JUMPDEST PUSH1 0x0 PUSH1 0x2 DUP3 DIV SWAP1 POP PUSH1 0x1 DUP3 AND DUP1 PUSH2 0xF97 JUMPI PUSH1 0x7F DUP3 AND SWAP2 POP JUMPDEST PUSH1 0x20 DUP3 LT DUP2 SUB PUSH2 0xFAA JUMPI PUSH2 0xFA9 PUSH2 0xF50 JUMP JUMPDEST JUMPDEST POP SWAP2 SWAP1 POP JUMP JUMPDEST PUSH32 0x436F6E7472616374206973207061757365640000000000000000000000000000 PUSH1 0x0 DUP3 ADD MSTORE POP JUMP JUMPDEST PUSH1 0x0 PUSH2 0xFE6 PUSH1 0x12 DUP4 PUSH2 0xB87 JUMP JUMPDEST SWAP2 POP PUSH2 0xFF1 DUP3 PUSH2 0xFB0 JUMP JUMPDEST PUSH1 0x20 DUP3 ADD SWAP1 POP SWAP2 SWAP1 POP JUMP JUMPDEST PUSH1 0x0 PUSH1 0x20 DUP3 ADD SWAP1 POP DUP2 DUP2 SUB PUSH1 0x0 DUP4 ADD MSTORE PUSH2 0x1015 DUP2 PUSH2 0xFD9 JUMP JUMPDEST SWAP1 POP SWAP2 SWAP1 POP JUMP JUMPDEST PUSH32 0x79657420746F2072656769737465720000000000000000000000000000000000 PUSH1 0x0 DUP3 ADD MSTORE POP JUMP JUMPDEST PUSH1 0x0 PUSH2 0x1052 PUSH1 0xF DUP4 PUSH2 0xB87 JUMP JUMPDEST SWAP2 POP PUSH2 0x105D DUP3 PUSH2 0x101C JUMP JUMPDEST PUSH1 0x20 DUP3 ADD SWAP1 POP SWAP2 SWAP1 POP JUMP JUMPDEST PUSH1 0x0 PUSH1 0x20 DUP3 ADD SWAP1 POP DUP2 DUP2 SUB PUSH1 0x0 DUP4 ADD MSTORE PUSH2 0x1081 DUP2 PUSH2 0x1045 JUMP JUMPDEST SWAP1 POP SWAP2 SWAP1 POP JUMP JUMPDEST PUSH32 0x5072696365206D7573742062652067726561746572207468616E203000000000 PUSH1 0x0 DUP3 ADD MSTORE POP JUMP JUMPDEST PUSH1 0x0 PUSH2 0x10BE PUSH1 0x1C DUP4 PUSH2 0xB87 JUMP JUMPDEST SWAP2 POP PUSH2 0x10C9 DUP3 PUSH2 0x1088 JUMP JUMPDEST PUSH1 0x20 DUP3 ADD SWAP1 POP SWAP2 SWAP1 POP JUMP JUMPDEST PUSH1 0x0 PUSH1 0x20 DUP3 ADD SWAP1 POP DUP2 DUP2 SUB PUSH1 0x0 DUP4 ADD MSTORE PUSH2 0x10ED DUP2 PUSH2 0x10B1 JUMP JUMPDEST SWAP1 POP SWAP2 SWAP1 POP JUMP JUMPDEST PUSH32 0x5061796D656E7420696E74657276616C206D7573742062652067726561746572 PUSH1 0x0 DUP3 ADD MSTORE PUSH32 0x207468616E203000000000000000000000000000000000000000000000000000 PUSH1 0x20 DUP3 ADD MSTORE POP JUMP JUMPDEST PUSH1 0x0 PUSH2 0x1150 PUSH1 0x27 DUP4 PUSH2 0xB87 JUMP JUMPDEST SWAP2 POP PUSH2 0x115B DUP3 PUSH2 0x10F4 JUMP JUMPDEST PUSH1 0x40 DUP3 ADD SWAP1 POP SWAP2 SWAP1 POP JUMP JUMPDEST PUSH1 0x0 PUSH1 0x20 DUP3 ADD SWAP1 POP DUP2 DUP2 SUB PUSH1 0x0 DUP4 ADD MSTORE PUSH2 0x117F DUP2 PUSH2 0x1143 JUMP JUMPDEST SWAP1 POP SWAP2 SWAP1 POP JUMP JUMPDEST PUSH32 0x4E487B7100000000000000000000000000000000000000000000000000000000 PUSH1 0x0 MSTORE PUSH1 0x11 PUSH1 0x4 MSTORE PUSH1 0x24 PUSH1 0x0 REVERT JUMPDEST PUSH1 0x0 PUSH2 0x11C0 DUP3 PUSH2 0xC0C JUMP JUMPDEST SWAP2 POP PUSH2 0x11CB DUP4 PUSH2 0xC0C JUMP JUMPDEST SWAP3 POP DUP3 DUP3 ADD SWAP1 POP DUP1 DUP3 GT ISZERO PUSH2 0x11E3 JUMPI PUSH2 0x11E2 PUSH2 0x1186 JUMP JUMPDEST JUMPDEST SWAP3 SWAP2 POP POP JUMP JUMPDEST PUSH1 0x0 DUP2 SWAP1 POP DUP2 PUSH1 0x0 MSTORE PUSH1 0x20 PUSH1 0x0 KECCAK256 SWAP1 POP SWAP2 SWAP1 POP JUMP JUMPDEST PUSH1 0x0 PUSH1 0x20 PUSH1 0x1F DUP4 ADD DIV SWAP1 POP SWAP2 SWAP1 POP JUMP JUMPDEST PUSH1 0x0 DUP3 DUP3 SHL SWAP1 POP SWAP3 SWAP2 POP POP JUMP JUMPDEST PUSH1 0x0 PUSH1 0x8 DUP4 MUL PUSH2 0x124B PUSH32 0xFFFFFFFFFFFFFFFFFFFFFFFFFFFFFFFFFFFFFFFFFFFFFFFFFFFFFFFFFFFFFFFF DUP3 PUSH2 0x120E JUMP JUMPDEST PUSH2 0x1255 DUP7 DUP4 PUSH2 0x120E JUMP JUMPDEST SWAP6 POP DUP1 NOT DUP5 AND SWAP4 POP DUP1 DUP7 AND DUP5 OR SWAP3 POP POP POP SWAP4 SWAP3 POP POP POP JUMP JUMPDEST PUSH1 0x0 DUP2 SWAP1 POP SWAP2 SWAP1 POP JUMP JUMPDEST PUSH1 0x0 PUSH2 0x1292 PUSH2 0x128D PUSH2 0x1288 DUP5 PUSH2 0xC0C JUMP JUMPDEST PUSH2 0x126D JUMP JUMPDEST PUSH2 0xC0C JUMP JUMPDEST SWAP1 POP SWAP2 SWAP1 POP JUMP JUMPDEST PUSH1 0x0 DUP2 SWAP1 POP SWAP2 SWAP1 POP JUMP JUMPDEST PUSH2 0x12AC DUP4 PUSH2 0x1277 JUMP JUMPDEST PUSH2 0x12C0 PUSH2 0x12B8 DUP3 PUSH2 0x1299 JUMP JUMPDEST DUP5 DUP5 SLOAD PUSH2 0x121B JUMP JUMPDEST DUP3 SSTORE POP POP POP POP JUMP JUMPDEST PUSH1 0x0 SWAP1 JUMP JUMPDEST PUSH2 0x12D5 PUSH2 0x12C8 JUMP JUMPDEST PUSH2 0x12E0 DUP2 DUP5 DUP5 PUSH2 0x12A3 JUMP JUMPDEST POP POP POP JUMP JUMPDEST JUMPDEST DUP2 DUP2 LT ISZERO PUSH2 0x1304 JUMPI PUSH2 0x12F9 PUSH1 0x0 DUP3 PUSH2 0x12CD JUMP JUMPDEST PUSH1 0x1 DUP2 ADD SWAP1 POP PUSH2 0x12E6 JUMP JUMPDEST POP POP JUMP JUMPDEST PUSH1 0x1F DUP3 GT ISZERO PUSH2 0x1349 JUMPI PUSH2 0x131A DUP2 PUSH2 0x11E9 JUMP JUMPDEST PUSH2 0x1323 DUP5 PUSH2 0x11FE JUMP JUMPDEST DUP2 ADD PUSH1 0x20 DUP6 LT ISZERO PUSH2 0x1332 JUMPI DUP2 SWAP1 POP JUMPDEST PUSH2 0x1346 PUSH2 0x133E DUP6 PUSH2 0x11FE JUMP JUMPDEST DUP4 ADD DUP3 PUSH2 0x12E5 JUMP JUMPDEST POP POP JUMPDEST POP POP POP JUMP JUMPDEST PUSH1 0x0 DUP3 DUP3 SHR SWAP1 POP SWAP3 SWAP2 POP POP JUMP JUMPDEST PUSH1 0x0 PUSH2 0x136C PUSH1 0x0 NOT DUP5 PUSH1 0x8 MUL PUSH2 0x134E JUMP JUMPDEST NOT DUP1 DUP4 AND SWAP2 POP POP SWAP3 SWAP2 POP POP JUMP JUMPDEST PUSH1 0x0 PUSH2 0x1385 DUP4 DUP4 PUSH2 0x135B JUMP JUMPDEST SWAP2 POP DUP3 PUSH1 0x2 MUL DUP3 OR SWAP1 POP SWAP3 SWAP2 POP POP JUMP JUMPDEST PUSH2 0x139E DUP3 PUSH2 0xB7C JUMP JUMPDEST PUSH8 0xFFFFFFFFFFFFFFFF DUP2 GT ISZERO PUSH2 0x13B7 JUMPI PUSH2 0x13B6 PUSH2 0xC89 JUMP JUMPDEST JUMPDEST PUSH2 0x13C1 DUP3 SLOAD PUSH2 0xF7F JUMP JUMPDEST PUSH2 0x13CC DUP3 DUP3 DUP6 PUSH2 0x1308 JUMP JUMPDEST PUSH1 0x0 PUSH1 0x20 SWAP1 POP PUSH1 0x1F DUP4 GT PUSH1 0x1 DUP2 EQ PUSH2 0x13FF JUMPI PUSH1 0x0 DUP5 ISZERO PUSH2 0x13ED JUMPI DUP3 DUP8 ADD MLOAD SWAP1 POP JUMPDEST PUSH2 0x13F7 DUP6 DUP3 PUSH2 0x1379 JUMP JUMPDEST DUP7 SSTORE POP PUSH2 0x145F JUMP JUMPDEST PUSH1 0x1F NOT DUP5 AND PUSH2 0x140D DUP7 PUSH2 0x11E9 JUMP JUMPDEST PUSH1 0x0 JUMPDEST DUP3 DUP2 LT ISZERO PUSH2 0x1435 JUMPI DUP5 DUP10 ADD MLOAD DUP3 SSTORE PUSH1 0x1 DUP3 ADD SWAP2 POP PUSH1 0x20 DUP6 ADD SWAP5 POP PUSH1 0x20 DUP2 ADD SWAP1 POP PUSH2 0x1410 JUMP JUMPDEST DUP7 DUP4 LT ISZERO PUSH2 0x1452 JUMPI DUP5 DUP10 ADD MLOAD PUSH2 0x144E PUSH1 0x1F DUP10 AND DUP3 PUSH2 0x135B JUMP JUMPDEST DUP4 SSTORE POP JUMPDEST PUSH1 0x1 PUSH1 0x2 DUP9 MUL ADD DUP9 SSTORE POP POP POP JUMPDEST POP POP POP POP POP POP JUMP JUMPDEST PUSH1 0x0 PUSH1 0x40 DUP3 ADD SWAP1 POP PUSH2 0x147C PUSH1 0x0 DUP4 ADD DUP6 PUSH2 0xC16 JUMP JUMPDEST DUP2 DUP2 SUB PUSH1 0x20 DUP4 ADD MSTORE PUSH2 0x148E DUP2 DUP5 PUSH2 0xBD3 JUMP JUMPDEST SWAP1 POP SWAP4 SWAP3 POP POP POP JUMP JUMPDEST PUSH32 0x4F6E6C792074686520636F6E7472616374206F776E65722063616E2070657266 PUSH1 0x0 DUP3 ADD MSTORE PUSH32 0x6F726D207468697320616374696F6E0000000000000000000000000000000000 PUSH1 0x20 DUP3 ADD MSTORE POP JUMP JUMPDEST PUSH1 0x0 PUSH2 0x14F3 PUSH1 0x2F DUP4 PUSH2 0xB87 JUMP JUMPDEST SWAP2 POP PUSH2 0x14FE DUP3 PUSH2 0x1497 JUMP JUMPDEST PUSH1 0x40 DUP3 ADD SWAP1 POP SWAP2 SWAP1 POP JUMP JUMPDEST PUSH1 0x0 PUSH1 0x20 DUP3 ADD SWAP1 POP DUP2 DUP2 SUB PUSH1 0x0 DUP4 ADD MSTORE PUSH2 0x1522 DUP2 PUSH2 0x14E6 JUMP JUMPDEST SWAP1 POP SWAP2 SWAP1 POP JUMP JUMPDEST PUSH32 0x50726F766964657220616C726561647920726567697374657265640000000000 PUSH1 0x0 DUP3 ADD MSTORE POP JUMP JUMPDEST PUSH1 0x0 PUSH2 0x155F PUSH1 0x1B DUP4 PUSH2 0xB87 JUMP JUMPDEST SWAP2 POP PUSH2 0x156A DUP3 PUSH2 0x1529 JUMP JUMPDEST PUSH1 0x20 DUP3 ADD SWAP1 POP SWAP2 SWAP1 POP JUMP JUMPDEST PUSH1 0x0 PUSH1 0x20 DUP3 ADD SWAP1 POP DUP2 DUP2 SUB PUSH1 0x0 DUP4 ADD MSTORE PUSH2 0x158E DUP2 PUSH2 0x1552 JUMP JUMPDEST SWAP1 POP SWAP2 SWAP1 POP JUMP JUMPDEST PUSH1 0x0 PUSH1 0x20 DUP3 ADD SWAP1 POP DUP2 DUP2 SUB PUSH1 0x0 DUP4 ADD MSTORE PUSH2 0x15AF DUP2 DUP5 PUSH2 0xBD3 JUMP JUMPDEST SWAP1 POP SWAP3 SWAP2 POP POP JUMP INVALID LOG2 PUSH5 0x6970667358 0x22 SLT KECCAK256 PREVRANDAO PUSH8 0x1A40C79AAB8FD82C 0xD6 RETURNDATACOPY DELEGATECALL 0xC5 0xB4 0xC0 0x2A TSTORE EXTCODECOPY INVALID 0xFB 0xE0 0x29 0xB0 0x27 0xA9 SHL LOG0 0xC0 0x28 PUSH19 0x6D64736F6C6343000818003300000000000000 "
        },
        "methodIdentifiers": {
          "allServiceProviders(address)": "3cf9e381",
          "contractOwner()": "ce606ee0",
          "contractPaused()": "8a67456a",
          "createSubscriptionPlan(string,uint256,uint256)": "8e6e69d1",
          "paymentGracePeriod()": "ae31b3dd",
          "registerServiceProvider(address,string)": "91e794de",
          "serviceProviders(address)": "6a0f4dd0",
          "userDetails(address)": "48dec2a7",
          "userSubscriptions(address)": "cf14b9e4"
        }
      }
    }
  }
}